:100000000C948B000C94A8000C94A8000C94A800ED
:100010000C94A8000C94A8000C94A8000C94D7028F
:100020000C94FF020C9427030C94A8000C94A800D5
:100030000C94A8000C94A8000C944F030C94A800F6
:100040000C94A8000C94A8000C94A8000C94A80090
:100050000C94A8000C94A8000C94A8000C94A80080
:100060000C94A8000C946B010C94A8000C94A800AC
:10007000D601130298011302130213021302130292
:1000800013021302130213021302130213020B02D0
:10009000D601130298011302130213021302130272
:1000A00013021302130213021302130213021302A8
:1000B0001302130213021302130213021302130298
:1000C0001302130213021302130213021302130288
:1000D0001302130213021302130213021302130278
:1000E0001302130213021302130213021302130268
:1000F000E8011302A30113021302130213021302F5
:100100001302130213021302130213021302130247
:10011000E8011302BC0111241FBECFEFD4E0DEBF03
:10012000CDBF11E0A0E0B1E0E6EDF6E002C0059041
:100130000D92A830B107D9F721E0A8E0B1E001C0E5
:100140001D92AE30B207E1F70E94A4020C9469033D
:100150000C940000CF93DF931F92CDB7DEB7898355
:100160008CE790E02981FC0120838FE790E028E074
:10017000FC01208310920C0100000F90DF91CF91C1
:100180000895CF93DF93CDB7DEB780910C01DF9157
:10019000CF910895CF93DF93CDB7DEB700000E94D3
:1001A000C1008823E1F780910601DF91CF91089586
:1001B000CF93DF9300D000D0CDB7DEB79B838A8387
:1001C0006C8300000E94C1008823E1F78C8180933A
:1001D0000501198213C08981882F90E02981222F7F
:1001E00030E04A815B81240F351FF9012081805066
:1001F0009F4FFC01208389818F5F898399818C8146
:10020000981748F31092080188EF809306018FE752
:1002100090E028E3FC01208381E080930C01000042
:100220000F900F900F900F90DF91CF910895CF9383
:10023000DF93CDB7DEB700000E94C1008823E1F74D
:100240001092080188EF809306018FE790E028E381
:10025000FC01208310920C010000DF91CF910895E2
:10026000CF93DF9300D000D0CDB7DEB79B838A83D6
:100270006C8300000E94C1008823E1F7809108018F
:1002800081708823F1F0198213C08981882F90E052
:100290002A813B81820F931F2981222F30E0205039
:1002A0003F4FF9012081FC01208389818F5F898381
:1002B00099818C81981748F3809108018D7F8093F4
:1002C00008018091080181700F900F900F900F909E
:1002D000DF91CF9108951F920F9200905F000F92CF
:1002E00011242F933F934F935F938F939F93AF93DB
:1002F000BF93EF93FF93CF93DF93CDB7DEB78DE737
:1003000090E0FC018081882F90E0092E000CAA0B60
:10031000BB0B41E650E022E530E0841B950B28172B
:10032000390708F480C0885C9F4FFC010C9463037C
:10033000809108018860809308018EE790E023E0B7
:10034000FC0120837FC08AE790E020910D0131E01D
:10035000320F30930D01222F30E020503F4FF90132
:100360002081FC01208381E080930C018EE790E0E6
:1003700023E0FC01208366C090910D01809105016E
:10038000981731F48091080181608093080108C0BA
:100390008DE790E0FC0180818093060110920C01B2
:1003A0008DE790E020ECFC0120834CC08091080197
:1003B0008260809308011092090110920D018EE76E
:1003C00090E023E0FC01208381E080930C013AC09F
:1003D00080910D0191E0980F90930D01882F90E08E
:1003E0002AE730E0F901208180509F4FFC012083F3
:1003F000809109018F5F80930901809108018160DC
:10040000809308018EE790E023E0FC01208381E0E7
:1004100080930C0117C08DE790E020ECFC01208355
:1004200010920C010FC08AE790E02DE730E0F9014F
:100430002081FC0120838DE790E020ECFC012083EB
:1004400010920C010000DF91CF91FF91EF91BF91CD
:10045000AF919F918F915F914F913F912F910F900D
:1004600000925F000F901F901895CF93DF93CDB748
:10047000DEB780E390E020E6FC01208382E390E099
:10048000FC01108282E790E022E0FC01208381E7FA
:1004900090E02AE1FC01208389E690E02EE4FC0153
:1004A000208388E690E020E2FC0120838AE590E04A
:1004B00020EEFC0120838DE690E025E0FC01208306
:1004C0008CE690E02CEDFC0120838BE690E025E0AB
:1004D000FC0120838AE690E02CEDFC0120830000E3
:1004E000DF91CF910895CF93DF93CDB7DEB783E24D
:1004F00090E027E8FC0120830000DF91CF91089570
:10050000CF93DF931F92CDB7DEB7898384E290E06B
:100510002981FC01208383E290E023E230E0F901AD
:1005200020812064FC012083000083E290E0FC0134
:100530008081882F90E080749927892BB1F7000083
:100540000F90DF91CF910895CF93DF931F92CDB796
:10055000DEB783E690E023E4FC0120838FE490E0A3
:1005600028EDFC01208383E590E0FC01108282E00D
:1005700089830E9435020E94730289810E94AA0029
:1005800078940E94170184E00E9480028CE690E03B
:1005900020E230E0F9012081FC0120838DE690E02B
:1005A00021E230E0F9012081FC012083ECCF1F9291
:1005B0000F9200905F000F9211242F933F938F931F
:1005C0009F93EF93FF93CF93DF93CDB7DEB781E394
:1005D00090E021E330E0F90120812F7DFC012083B0
:1005E0000000DF91CF91FF91EF919F918F913F910B
:1005F0002F910F9000925F000F901F9018951F92FF
:100600000F9200905F000F9211242F933F938F93CE
:100610009F93EF93FF93CF93DF93CDB7DEB781E343
:1006200090E021E330E0F90120812F7BFC01208361
:100630000000DF91CF91FF91EF919F918F913F91BA
:100640002F910F9000925F000F901F9018951F92AE
:100650000F9200905F000F9211242F933F938F937E
:100660009F93EF93FF93CF93DF93CDB7DEB781E3F3
:1006700090E021E330E0F90120812066FC01208335
:100680000000DF91CF91FF91EF919F918F913F916A
:100690002F910F9000925F000F901F9018951F925E
:1006A0000F9200905F000F921124CF93DF93CDB78C
:1006B000DEB7F8940000DF91CF910F9000925F00B9
:1006C0000F901F901895EE0FFF1F0590F491E02DED
:0606D0000994F894FFCF2D
:0806D60005DC05DC0005F8005D
:00000001FF
