:100000000C948B000C94A8000C94A8000C94A800ED
:100010000C94A8000C94A8000C94A8000C94FC026A
:100020000C9424030C944C030C94A8000C94A8008A
:100030000C94A8000C94A8000C94A8000C94A800A0
:100040000C94A8000C94A8000C94A8000C94A80090
:100050000C94A8000C94A8000C94A8000C94A80080
:100060000C94A8000C946B010C94A8000C94A800AC
:10007000D601130298011302130213021302130292
:1000800013021302130213021302130213020B02D0
:10009000D601130298011302130213021302130272
:1000A00013021302130213021302130213021302A8
:1000B0001302130213021302130213021302130298
:1000C0001302130213021302130213021302130288
:1000D0001302130213021302130213021302130278
:1000E0001302130213021302130213021302130268
:1000F000E8011302A30113021302130213021302F5
:100100001302130213021302130213021302130247
:10011000E8011302BC0111241FBECFEFD4E0DEBF03
:10012000CDBF11E0A0E0B1E0E2E4F7E002C005904D
:100130000D92A031B107D9F721E0A0E1B1E001C0F3
:100140001D92A631B207E1F70E94CA020C949F03E8
:100150000C940000CF93DF931F92CDB7DEB7898355
:100160008CE790E02981FC0120838FE790E028E074
:10017000FC0120831092140100000F90DF91CF91B9
:100180000895CF93DF93CDB7DEB780911401DF914F
:10019000CF910895CF93DF93CDB7DEB700000E94D3
:1001A000C1008823E1F780910F01DF91CF9108957D
:1001B000CF93DF9300D000D0CDB7DEB79B838A8387
:1001C0006C8300000E94C1008823E1F78C8180933A
:1001D0000E01198213C08981882F90E02981222F76
:1001E00030E04A815B81240F351FF9012081805066
:1001F0009F4FFC01208389818F5F898399818C8146
:10020000981748F31092100188EF80930F018FE741
:1002100090E028E3FC01208381E08093140100003A
:100220000F900F900F900F90DF91CF910895CF9383
:10023000DF93CDB7DEB700000E94C1008823E1F74D
:100240001092100188EF80930F018FE790E028E370
:10025000FC012083109214010000DF91CF910895DA
:10026000CF93DF9300D000D0CDB7DEB79B838A83D6
:100270006C8300000E94C1008823E1F78091100187
:1002800081708823F1F0198213C08981882F90E052
:100290002A813B81820F931F2981222F30E0205039
:1002A0003F4FF9012081FC01208389818F5F898381
:1002B00099818C81981748F3809110018D7F8093EC
:1002C00010018091100181700F900F900F900F908E
:1002D000DF91CF9108951F920F9200905F000F92CF
:1002E00011242F933F934F935F938F939F93AF93DB
:1002F000BF93EF93FF93CF93DF93CDB7DEB78DE737
:1003000090E0FC018081882F90E0092E000CAA0B60
:10031000BB0B41E650E022E530E0841B950B28172B
:10032000390708F480C0885C9F4FFC010C94990346
:10033000809110018860809310018EE790E023E0A7
:10034000FC0120837FC08AE790E02091150131E015
:10035000320F30931501222F30E020503F4FF9012A
:100360002081FC01208381E0809314018EE790E0DE
:1003700023E0FC01208366C09091150180910E015D
:10038000981731F48091100181608093100108C0AA
:100390008DE790E0FC01808180930F0110921401A1
:1003A0008DE790E020ECFC0120834CC0809110018F
:1003B00082608093100110921101109215018EE756
:1003C00090E023E0FC01208381E0809314013AC097
:1003D0008091150191E0980F90931501882F90E07E
:1003E0002AE730E0F901208180509F4FFC012083F3
:1003F000809111018F5F80931101809110018160C4
:10040000809310018EE790E023E0FC01208381E0DF
:100410008093140117C08DE790E020ECFC0120834D
:10042000109214010FC08AE790E02DE730E0F90147
:100430002081FC0120838DE790E020ECFC012083EB
:10044000109214010000DF91CF91FF91EF91BF91C5
:10045000AF919F918F915F914F913F912F910F900D
:1004600000925F000F901F901895CF93DF93CDB748
:10047000DEB780E390E020E6FC01208382E390E099
:10048000FC01108282E790E022E0FC01208381E7FA
:1004900090E02AE1FC01208389E690E02EE4FC0153
:1004A000208388E690E020E2FC0120838AE590E04A
:1004B00020EEFC0120838DE690E025E0FC01208306
:1004C0008CE690E02CEDFC0120838BE690E025E0AB
:1004D000FC0120838AE690E02CEDFC0120830000E3
:1004E000DF91CF910895CF93DF93CDB7DEB783E24D
:1004F00090E027E8FC0120830000DF91CF91089570
:10050000CF93DF931F92CDB7DEB7898384E290E06B
:100510002981FC01208383E290E023E230E0F901AD
:1005200020812064FC012083000083E290E0FC0134
:100530008081882F90E080749927892BB1F7809172
:100540001201909113019C012F5F3F4F30931301D3
:100550002093120120E230E0F901208180509F4F6A
:10056000FC01208380911201909113019C012F5F67
:100570003F4F309313012093120121E230E0F90143
:10058000208180509F4FFC01208300000F90DF915D
:10059000CF910895CF93DF931F92CDB7DEB783E657
:1005A00090E022E4FC0120838FE490E028EDFC0140
:1005B000208383E590E0FC01108284E089830E941F
:1005C00035020E94730289810E94AA0078940E94D9
:1005D000170186E090E0909313018093120181E06F
:1005E0000E94800284E00E94800280E00E948002DB
:1005F00085E00E948002EDCF1F920F9200905F0075
:100600000F9211242F933F938F939F93EF93FF9318
:10061000CF93DF93CDB7DEB781E390E021E330E005
:10062000F90120812F7DFC0120830000DF91CF9113
:10063000FF91EF919F918F913F912F910F90009299
:100640005F000F901F9018951F920F9200905F000F
:100650000F9211242F933F938F939F93EF93FF93C8
:10066000CF93DF93CDB7DEB781E390E021E330E0B5
:10067000F90120812F7BFC0120830000DF91CF91C5
:10068000FF91EF919F918F913F912F910F90009249
:100690005F000F901F9018951F920F9200905F00BF
:1006A0000F9211242F933F938F939F93EF93FF9378
:1006B000CF93DF93CDB7DEB781E390E021E330E065
:1006C000F90120812066FC0120838DE690E02091D5
:1006D0000001FC0120838CE690E020910101FC01E7
:1006E00020838BE690E020910201FC0120838AE6C2
:1006F00090E020910301FC01208390910001809102
:100700000201982720910101809103018227892706
:10071000809304010000DF91CF91FF91EF919F91B1
:100720008F913F912F910F9000925F000F901F903B
:100730001895EE0FFF1F0590F491E02D0994F894A1
:02074000FFCFE9
:1007420005DC05DC0000000000000000000005F8E8
:00000001FF
